:020000040000FA
:100000000C9462000C948A000C948A000C948A0070
:100010000C948A000C948A000C948A000C948A0038
:100020000C948A000C948A000C948A000C948A0028
:100030000C948A000C948A000C948A000C948A0018
:100040000C9436030C948A000C94A6030C94800341
:100050000C948A000C948A000C948A000C948A00F8
:100060000C948A000C948A000000000024002700F1
:100070002A000000000023002600290000000000E4
:10008000250028002B0004040404040404040202D4
:100090000202020203030303030301020408102007
:1000A0004080010204081020010204081020000012
:1000B0000008000201000003040700000000000027
:1000C00000009E0511241FBECFEFD8E0DEBFCDBFDC
:1000D00011E0A0E0B1E0EAEEFBE002C005900D9275
:1000E000A03AB107D9F722E0A0EAB1E001C01D9221
:1000F000A135B207E1F710E0C2E6D0E004C02197D5
:10010000FE010E94ED05C136D107C9F70E94D80350
:100110000C94F3050C940000833081F028F48130B6
:1001200099F08230A9F008958730A9F08830C9F09D
:100130008430B1F4809180008F7D03C08091800075
:100140008F7780938000089584B58F7784BD08955C
:1001500084B58F7DFBCF8091B0008F778093B00006
:1001600008958091B0008F7DF9CF1F93CF93DF93D7
:10017000EBEBF0E09491E7EAF0E0D491E3E9F0E012
:10018000C491CC23B9F0182F992319F0892F0E941C
:100190008C00EC2FF0E0EE0FFF1FE458FF4FA5910D
:1001A000B4918FB7F894EC91111108C0D095DE236B
:1001B000DC938FBFDF91CF911F910895DE2BF8CF95
:1001C000CF93DF93E0EBF0E08491ECE9F0E0D491A1
:1001D000E8E8F0E0C491CC23A1F081110E948C00EA
:1001E000EC2FF0E0EE0FFF1FEE58FF4FA591B491FA
:1001F000EC91ED2381E090E009F480E0DF91CF9174
:10020000089580E090E0FACF3FB7F8948091B00174
:100210009091B101A091B201B091B30126B5A89B14
:1002200005C02F3F19F00196A11DB11D3FBFBA2F88
:10023000A92F982F8827BC01CD01620F711D811D48
:10024000911D42E0660F771F881F991F4A95D1F7CD
:1002500008958F929F92AF92BF92CF92DF92EF92CA
:10026000FF924B015C010E9404016B017C010E9422
:1002700004016C197D098E099F09683E7340810550
:100280009105A8F321E0821A9108A108B10888EE2F
:10029000C80E83E0D81EE11CF11C81149104A10456
:1002A000B10429F7FF90EF90DF90CF90BF90AF900F
:1002B0009F908F9008952FB7F8946091AC01709142
:1002C000AD018091AE019091AF012FBF0895AF9223
:1002D000BF92CF92DF92EF92FF920F931F93CF9333
:1002E000DF936C017B018B01040F151FEB015E0195
:1002F000AE18BF08C017D10759F06991D601ED912A
:10030000FC910190F081E02DC6010995892B79F7C8
:10031000C501DF91CF911F910F91FF90EF90DF907A
:10032000CF90BF90AF900895FC01538D448D252F41
:1003300030E0842F90E0821B930B541710F0CF967F
:10034000089501970895FC01918D828D981761F0B1
:10035000A28DAE0FBF2FB11D5D968C91928D9F5FC8
:100360009F73928F90E008958FEF9FEF0895FC01A7
:10037000918D828D981731F0828DE80FF11D858D5A
:1003800090E008958FEF9FEF0895FC01918D228DED
:10039000892F90E0805C9F4F821B91098F73992772
:1003A000089584EB91E00E94C50121E0892B09F4B6
:1003B00020E0822F089580E090E0892B29F00E94B0
:1003C000D10181110C9400000895FC01A48DA80FA7
:1003D000B92FB11DA35ABF4F2C91848D90E0019687
:1003E0008F739927848FA689B7892C93A089B189A7
:1003F0008C91837080648C93938D848D981306C048
:100400000288F389E02D80818F7D80830895EF92AB
:10041000FF920F931F93CF93DF93EC0181E0888FBE
:100420009B8D8C8D98131AC0E889F989808185FF8E
:1004300015C09FB7F894EE89FF896083E889F98930
:1004400080818370806480839FBF81E090E0DF9132
:10045000CF911F910F91FF90EF900895F62E0B8D85
:1004600010E00F5F1F4F0F731127E02E8C8D8E1140
:100470000CC00FB607FCFACFE889F989808185FFA7
:10048000F5CFCE010E94E501F1CFEB8DEC0FFD2FF2
:10049000F11DE35AFF4FF0829FB7F8940B8FEA8962
:1004A000FB8980818062CFCFCF93DF93EC01888D71
:1004B0008823B9F0AA89BB89E889F9898C9185FDDF
:1004C00003C0808186FD0DC00FB607FCF7CF8C916D
:1004D00085FFF2CF808185FFEDCFCE010E94E5013F
:1004E000E9CFDF91CF910895CF92DF92EF92FF9203
:1004F0000F931F93CF93DF938C0194E6C92ED12CD9
:10050000E12CF12C672B31F48CE2C82EDD24D3943E
:10051000E12CF12CD0E0C0E081E00E94B500C701E1
:10052000B6010E94290180E00E94B500C701B60112
:100530000E94290121960C171D0771F7DF91CF91B9
:100540001F910F91FF90EF90DF90CF900895FC01E5
:1005500001900020E9F73197AF01481B590BBC010E
:1005600084EB91E00C946701CF93DF930E94A70284
:10057000EC0186E191E00E94A7028C0F9D1FDF91A4
:10058000CF910895CF92DF92EF92FF920F931F9336
:10059000CF93DF93CDB7DEB7A1970FB6F894DEBF48
:1005A0000FBECDBF8C0189E191E00E94A7026801D6
:1005B000012E000CEE08FF0817FF3DC06DE284EB32
:1005C00091E00E94070222273327A9012C193D0937
:1005D0004E095F0919A28E010F5D1F4F9AE0C92EC7
:1005E000D12CE12CF12CCA01B901A70196010E947E
:1005F000CB05605DF80162938F012115310541053E
:10060000510589F70115110519F0C8010E94A702CB
:1006100086E191E00E94A702A1960FB6F894DEBF92
:100620000FBECDBFDF91CF911F910F91FF90EF9043
:10063000DF90CF900895A701960119A28E010F5D5A
:100640001F4F8AE0C82ED12CE12CF12CCA01B90130
:10065000A70196010E94CB05605DF80162938F01AE
:10066000211531054105510589F7CCCF1F920F9215
:100670000FB60F9211242F933F938F939F93AF93B5
:10068000BF938091AC019091AD01A091AE01B0916A
:10069000AF013091AB0123E0230F2D3758F50196C0
:1006A000A11DB11D2093AB018093AC019093AD01CE
:1006B000A093AE01B093AF018091B0019091B101D0
:1006C000A091B201B091B3010196A11DB11D80931B
:1006D000B0019093B101A093B201B093B301BF9167
:1006E000AF919F918F913F912F910F900FBE0F90DF
:1006F0001F90189526E8230F0296A11DB11DD2CF99
:100700001F920F920FB60F9211242F933F934F9386
:100710005F936F937F938F939F93AF93BF93EF9369
:10072000FF9384EB91E00E94E501FF91EF91BF916F
:10073000AF919F918F917F916F915F914F913F9179
:100740002F910F900FBE0F901F9018951F920F9230
:100750000FB60F9211242F938F939F93EF93FF93D4
:10076000E091C401F091C5018081E091CA01F0914E
:10077000CB0182FD1BC090818091CD018F5F8F7373
:100780002091CE01821741F0E091CD01F0E0EC54D0
:10079000FE4F958F8093CD01FF91EF919F918F91A7
:1007A0002F910F900FBE0F901F9018958081F4CF5E
:1007B000789484B5826084BD84B5816084BD85B53C
:1007C000826085BD85B5816085BD80916E00816048
:1007D00080936E00109281008091810082608093EE
:1007E00081008091810081608093810080918000F0
:1007F0008160809380008091B10084608093B1001B
:100800008091B00081608093B00080917A00846014
:1008100080937A0080917A00826080937A00809140
:100820007A00816080937A0080917A00806880935A
:100830007A001092C100ECE9F0E02491E8E8F0E0E1
:1008400084918823C1F090E0880F991FFC01E8593A
:10085000FF4FC591D491FC01E458FF4FA591B4918D
:100860009FB7F8943881822F809583238883EC91F9
:10087000E22BEC939FBFE7EAF0E02491E3E9F0E09C
:100880008491882399F090E0880F991FFC01E85922
:10089000FF4FA591B491FC01E458FF4F85919491CD
:1008A0008FB7F894EC91E22BEC938FBFC0900001CE
:1008B000D09001010D2C000CEE08FF0860E079E0FB
:1008C0008DE390E0A70196010E94CB0521503109EC
:1008D000410951095695479537952795E091C401EF
:1008E000F091C50182E08083211580E13807A8F0EE
:1008F000E091C401F091C501108260E874E88EE1D6
:1009000090E0A70196010E94CB05215031094109D1
:1009100051095695479537952795E091C001F0917B
:10092000C1013083E091C201F091C3012083109294
:10093000CC01E091C801F091C90186E08083E0918B
:10094000C601F091C701808180618083E091C6017A
:10095000F091C701808188608083E091C601F091A9
:10096000C701808180688083E091C601F091C70152
:1009700080818F7D80838BE291E00E94B402BB2452
:10098000B394C0E0D0E000E012EC80E8C82E85E22D
:10099000D82E0E94E00021E0009709F420E0209387
:1009A0000301E0900201F090A601892B09F054C0E8
:1009B000EE2051F00E945B016093A7017093A801A3
:1009C0008093A9019093AA010E945B014090A70126
:1009D0005090A8016090A9017090AA01641975094E
:1009E00086099709693B7B408105910508F45FC042
:1009F000E1105DC061E070E0FB24F092A60110926E
:100A0000A5011092A401FF2099F085E090E00E94DA
:100A1000740285E491E00E94B4020E94E000892BF8
:100A2000E1F36CE271E080E090E00E9429013FC0B8
:100A300083E090E00E94740280E691E0ECCF109396
:100A400001010093000170E060E082E090E00E940C
:100A5000740280E092EC59C0E11029C00E945B0151
:100A60004090A7015090A8016090A9017090AA0140
:100A70006419750986099709683B7B4081059105D2
:100A8000B0F4FF2009F44BC08091A4019091A5011E
:100A900001969093A5018093A4010E945B0160934D
:100AA000A0017093A1018093A2019093A301809172
:100AB000A6018823A1F1E090A401F090A5011E14E5
:100AC0001F046CF50E945B014090A0015090A101B1
:100AD0006090A2017090A3016419750986099709B5
:100AE000613B744081059105D0F0EA94EF2809F04C
:100AF000A6CFD0920101C092000170E060E081E0D9
:100B000090E00E94740280E895E20E94C202109276
:100B1000A5011092A40180E891E00E94B4028091A6
:100B2000030180930201209709F433CF0E94D10181
:100B3000882309F42ECF0E9400002BCFE4EBF1E0D4
:100B40001382128288EE93E0A0E0B0E08483958364
:100B5000A683B78388E091E09183808385EC90E061
:100B60009587848784EC90E09787868780EC90E077
:100B7000918B808B81EC90E0938B828B82EC90E068
:100B8000958B848B86EC90E0978B868B118E128EE2
:100B9000138E148E0895A1E21A2EAA1BBB1BFD0111
:100BA0000DC0AA1FBB1FEE1FFF1FA217B307E4074C
:100BB000F50720F0A21BB30BE40BF50B661F771FA4
:100BC000881F991F1A9469F7609570958095909584
:100BD0009B01AC01BD01CF010895EE0FFF1F0590F1
:100BE000F491E02D0994F894FFCF802501010000D5
:100BF00000000702670194015402C501A301B70177
:100C00000D0A0055415254206461206361692064DB
:100C100061743A20004B686F6920646F6E67206FC3
:100C20002063686520646F204E4F524D414C003D5B
:100C30003D3D204D4F4445204341552048494E48B5
:100C40002055415254203D3D3D003D3D3D205452F4
:100C50004F2056452043484520444F20484F41549B
:100C600020444F4E47203D3D3D004E68616E206759
:100C700069752033732064652074686F6174206324
:0A0C80006F6E6669672E2E2E0000CD
:107E0000112484B714BE81FFF0D085E080938100F7
:107E100082E08093C00088E18093C10086E0809377
:107E2000C20080E18093C4008EE0C9D0259A86E02C
:107E300020E33CEF91E0309385002093840096BBD3
:107E4000B09BFECF1D9AA8958150A9F7CC24DD24C4
:107E500088248394B5E0AB2EA1E19A2EF3E0BF2EE7
:107E6000A2D0813461F49FD0082FAFD0023811F036
:107E7000013811F484E001C083E08DD089C08234E0
:107E800011F484E103C0853419F485E0A6D080C0E4
:107E9000853579F488D0E82EFF2485D0082F10E0AE
:107EA000102F00270E291F29000F111F8ED06801E7
:107EB0006FC0863521F484E090D080E0DECF843638
:107EC00009F040C070D06FD0082F6DD080E0C81688
:107ED00080E7D80618F4F601B7BEE895C0E0D1E017
:107EE00062D089930C17E1F7F0E0CF16F0E7DF06D8
:107EF00018F0F601B7BEE89568D007B600FCFDCFD4
:107F0000A601A0E0B1E02C9130E011968C91119780
:107F100090E0982F8827822B932B1296FA010C0160
:107F200087BEE89511244E5F5F4FF1E0A038BF0790
:107F300051F7F601A7BEE89507B600FCFDCF97BE46
:107F4000E89526C08437B1F42ED02DD0F82E2BD052
:107F50003CD0F601EF2C8F010F5F1F4F84911BD097
:107F6000EA94F801C1F70894C11CD11CFA94CF0C13
:107F7000D11C0EC0853739F428D08EE10CD085E9AC
:107F80000AD08FE07ACF813511F488E018D01DD067
:107F900080E101D065CF982F8091C00085FFFCCF94
:107FA0009093C60008958091C00087FFFCCF809118
:107FB000C00084FD01C0A8958091C6000895E0E648
:107FC000F0E098E1908380830895EDDF803219F02E
:107FD00088E0F5DFFFCF84E1DECF1F93182FE3DFCA
:107FE0001150E9F7F2DF1F91089580E0E8DFEE27F6
:047FF000FF270994CA
:027FFE00040479
:00000001FF
