:100000000C9462000C948A000C948A000C948A0070
:100010000C948A000C948A000C948A000C948A0038
:100020000C948A000C948A000C948A000C948A0028
:100030000C948A000C948A000C948A000C948A0018
:100040000C94C2030C948A000C9432040C940C049B
:100050000C948A000C948A000C948A000C948A00F8
:100060000C948A000C948A000000000024002700F1
:100070002A000000000023002600290000000000E4
:10008000250028002B0004040404040404040202D4
:100090000202020203030303030301020408102007
:1000A0004080010204081020010204081020000012
:1000B0000008000201000003040700000000000027
:1000C0000000D00511241FBECFEFD8E0DEBFCDBFAA
:1000D00011E0A0E0B1E0EEE4FCE002C005900D927A
:1000E000A438B107D9F722E0A4E8B1E001C01D921D
:1000F000A033B207E1F710E0C2E6D0E004C02197D8
:10010000FE010E941F06C136D107C9F70E94640490
:100110000C9425060C940000CF92DF92EF92FF9290
:100120006B017C0160E079E08DE390E0A70196012E
:100130000E94FD0521503109410951095695479505
:1001400037952795E091A301F091A40182E0808387
:10015000211580E13807A8F0E091A301F091A401F6
:10016000108260E874E88EE190E0A70196010E9499
:10017000FD0521503109410951095695479537959B
:100180002795E0919F01F091A0013083E091A101BA
:10019000F091A20120831092AB01E091A701F091B0
:1001A000A80186E08083E091A501F091A6018081FD
:1001B00080618083E091A501F091A6018081886033
:1001C0008083E091A501F091A60180818068808301
:1001D000E091A501F091A60180818F7D8083FF9041
:1001E000EF90DF90CF900895833081F028F4813034
:1001F00099F08230A9F008958730A9F08830C9F0CD
:100200008430B1F4809180008F7D03C080918000A4
:100210008F7780938000089584B58F7784BD08958B
:1002200084B58F7DFBCF8091B0008F778093B00035
:1002300008958091B0008F7DF9CF1F93CF93DF9306
:10024000EBEBF0E09491E7EAF0E0D491E3E9F0E041
:10025000C491CC23B9F0182F992319F0892F0E944B
:10026000F400EC2FF0E0EE0FFF1FE458FF4FA591D4
:10027000B4918FB7F894EC91111108C0D095DE239A
:10028000DC938FBFDF91CF911F910895DE2BF8CFC4
:10029000CF93DF93E0EBF0E08491ECE9F0E0D491D0
:1002A000E8E8F0E0C491CC23A1F081110E94F400B1
:1002B000EC2FF0E0EE0FFF1FEE58FF4FA591B49129
:1002C000EC91ED2381E090E009F480E0DF91CF91A3
:1002D000089580E090E0FACF3FB7F89480918F01C5
:1002E00090919001A0919101B091920126B5A89BA7
:1002F00005C02F3F19F00196A11DB11D3FBFBA2FB8
:10030000A92F982F8827BC01CD01620F711D811D77
:10031000911D42E0660F771F881F991F4A95D1F7FC
:1003200008958F929F92AF92BF92CF92DF92EF92F9
:10033000FF924B015C010E946C016B017C010E94E9
:100340006C016C197D098E099F09683E7340810517
:100350009105A8F321E0821A9108A108B10888EE5E
:10036000C80E83E0D81EE11CF11C81149104A10485
:10037000B10429F7FF90EF90DF90CF90BF90AF903E
:100380009F908F900895AF92BF92CF92DF92EF929D
:10039000FF920F931F93CF93DF936C017B018B012F
:1003A000040F151FEB015E01AE18BF08C017D1077F
:1003B00059F06991D601ED91FC910190F081E02D09
:1003C000C6010995892B79F7C501DF91CF911F915E
:1003D0000F91FF90EF90DF90CF90BF90AF90089576
:1003E000FC01538D448D252F30E0842F90E0821B3B
:1003F000930B541710F0CF96089501970895FC01C0
:10040000918D828D981761F0A28DAE0FBF2FB11D17
:100410005D968C91928D9F5F9F73928F90E008956F
:100420008FEF9FEF0895FC01918D828D981731F029
:10043000828DE80FF11D858D90E008958FEF9FEF7D
:100440000895FC01918D228D892F90E0805C9F4F53
:10045000821B91098F739927089583E991E00E9487
:10046000210221E0892B09F420E0822F089580E009
:1004700090E0892B29F00E942D0281110C9400003C
:100480000895FC01A48DA80FB92FB11DA35ABF4F29
:100490002C91848D90E001968F739927848FA68983
:1004A000B7892C93A089B1898C91837080648C93D7
:1004B000938D848D981306C00288F389E02D808186
:1004C0008F7D80830895EF92FF920F931F93CF93B8
:1004D000DF93EC0181E0888F9B8D8C8D98131AC07F
:1004E000E889F989808185FF15C09FB7F894EE8966
:1004F000FF896083E889F9898081837080648083C3
:100500009FBF81E090E0DF91CF911F910F91FF900D
:10051000EF900895F62E0B8D10E00F5F1F4F0F73B5
:100520001127E02E8C8D8E110CC00FB607FCFACF70
:10053000E889F989808185FFF5CFCE010E944102CB
:10054000F1CFEB8DEC0FFD2FF11DE35AFF4FF08241
:100550009FB7F8940B8FEA89FB8980818062CFCFA7
:10056000CF93DF93EC01888D8823B9F0AA89BB89EA
:10057000E889F9898C9185FD03C0808186FD0DC0D5
:100580000FB607FCF7CF8C9185FFF2CF808185FFF6
:10059000EDCFCE010E944102E9CFDF91CF910895C6
:1005A000CF92DF92EF92FF920F931F93CF93DF933F
:1005B0008C0194E6C92ED12CE12CF12C672B31F45F
:1005C0008CE2C82EDD24D394E12CF12CD0E0C0E0E5
:1005D00081E00E941D01C701B6010E94910180E0E7
:1005E0000E941D01C701B6010E94910121960C17BE
:1005F0001D0771F7DF91CF911F910F91FF90EF9041
:10060000DF90CF900895FC0101900020E9F7319729
:10061000AF01481B590BBC0183E991E00C94C30165
:10062000CF93DF930E940303EC0184E191E00E94E9
:1006300003038C0F9D1FDF91CF9108958F929F929E
:10064000AF92BF92CF92DF92EF92FF920F931F93E0
:10065000CF93DF93CDB7DEB7A1970FB6F894DEBF87
:100660000FBECDBF8C0183E991E00E94B002E09102
:10067000A501F091A60180818F7E8083E091A50184
:10068000F091A6018081877F8083E091A501F091A0
:10069000A60180818F778083E091A501F091A6016A
:1006A00080818F7D80838091AD018093AC01680152
:1006B000012E000CEE08FF08C701B6010E948C0055
:1006C00087E191E00E94030317FF41C06DE283E9D7
:1006D00091E00E94630222273327A9012C193D09CA
:1006E0004E095F0919A28E010F5D1F4F9AE0C92EB6
:1006F000D12CE12CF12CCA01B901A70196010E946D
:10070000FD05605DF80162938F01211531054105FA
:10071000510589F70115110519F0C8010E9403035D
:1007200084E191E00E940303A1960FB6F894DEBF26
:100730000FBECDBFDF91CF911F910F91FF90EF9032
:10074000DF90CF90BF90AF909F908F90089519A2A7
:100750008E010F5D1F4F8AE0882E912CA12CB12CA9
:10076000C701B601A50194010E94FD0569017A0146
:10077000605DF80162938F01C114D104E104F104BA
:1007800079F7C8CF1F920F920FB60F9211242F93B3
:100790003F938F939F93AF93BF9380918B019091E1
:1007A0008C01A0918D01B0918E0130918A0123E0DE
:1007B000230F2D3758F50196A11DB11D20938A01F5
:1007C00080938B0190938C01A0938D01B0938E0147
:1007D00080918F0190919001A0919101B09192012F
:1007E0000196A11DB11D80938F0190939001A0935C
:1007F0009101B0939201BF91AF919F918F913F91E1
:100800002F910F900FBE0F901F90189526E8230F81
:100810000296A11DB11DD2CF1F920F920FB60F925B
:1008200011242F933F934F935F936F937F938F93F5
:100830009F93AF93BF93EF93FF9383E991E00E945F
:100840004102FF91EF91BF91AF919F918F917F9165
:100850006F915F914F913F912F910F900FBE0F902D
:100860001F9018951F920F920FB60F9211242F937D
:100870008F939F93EF93FF93E091A301F091A401D5
:100880008081E091A901F091AA0182FD1BC09081B5
:100890008091AC018F5F8F732091AD01821741F081
:1008A000E091AC01F0E0ED56FE4F958F8093AC01E6
:1008B000FF91EF919F918F912F910F900FBE0F900D
:1008C0001F9018958081F4CF789484B5826084BDA0
:1008D00084B5816084BD85B5826085BD85B5816044
:1008E00085BD80916E00816080936E0010928100C2
:1008F000809181008260809381008091810081607D
:10090000809381008091800081608093800080913D
:10091000B10084608093B1008091B00081608093C9
:10092000B00080917A00846080937A0080917A0090
:10093000826080937A0080917A00816080937A004F
:1009400080917A00806880937A001092C100ECE96F
:10095000F0E02491E8E8F0E084918823C1F090E091
:10096000880F991FFC01E859FF4FC591D491FC01F4
:10097000E458FF4FA591B4919FB7F8943881822F26
:10098000809583238883EC91E22BEC939FBFE7EA69
:10099000F0E02491E3E9F0E08491882399F090E07D
:1009A000880F991FFC01E859FF4FA591B491FC01F4
:1009B000E458FF4F859194918FB7F894EC91E22B16
:1009C000EC938FBF6091000170910101072E000C24
:1009D000880B990B0E948C00BB24B39400E010E0BC
:1009E000AA24A394E12C82ECF82E90E8C92E95E27B
:1009F000D92E0E944801892BC9F480918901811167
:100A000015C02FB7F89480918B0190918C01A09123
:100A10008D01B0918E012FBF809385019093860147
:100A2000A0938701B0938801A092890180918901E8
:100A3000882309F442C00E944801892BC1F52FB7D1
:100A4000F89480918B0190918C01A0918D01B091CF
:100A50008E012FBF409185015091860160918701E1
:100A600070918801841B950BA60BB70B893B9B40AB
:100A7000A105B105C0F08091840161E070E08B2593
:100A800080938401882309F44EC085E090E00E94A1
:100A9000D00289E291E00E94100364EF71E080E0EF
:100AA00090E00E94910180918901882331F00E9499
:100AB0004801019711F410928901809184018823E3
:100AC00009F453C08FB7F89440908B0150908C017B
:100AD00060908D0170908E018FBFD0E0C0E02FB785
:100AE000F89480918B0190918C01A0918D01B0912F
:100AF0008E012FBF84199509A609B709883B9B4031
:100B0000A105B105B8F40E944801892B41F721964F
:100B10000E944801892BE1F368EC70E080E090E0EE
:100B20000E949101DCCF83E090E00E94D00284E437
:100B300091E0B1CFC130D10521F5D0920101C09231
:100B4000000170E060E081E090E00E94D00280E867
:100B500095E20E941E0384E691E00E94100364EF78
:100B600071E080E090E00E9491010115110509F407
:100B700040CF0E942D02882309F43BCF0E94000041
:100B800038CF229744F3F0920101E092000170E027
:100B900060E082E090E00E94D00280E092ECD9CF49
:100BA000E3E9F1E01382128288EE93E0A0E0B0E086
:100BB00084839583A683B78386E091E091838083C5
:100BC00085EC90E09587848784EC90E09787868712
:100BD00080EC90E0918B808B81EC90E0938B828B0A
:100BE00082EC90E0958B848B86EC90E0978B868BE3
:100BF000118E128E138E148E0895A1E21A2EAA1B46
:100C0000BB1BFD010DC0AA1FBB1FEE1FFF1FA217BC
:100C1000B307E407F50720F0A21BB30BE40BF50BB9
:100C2000661F771F881F991F1A9469F76095709542
:100C3000809590959B01AC01BD01CF010895EE0F09
:0E0C4000FF1F0590F491E02D0994F894FFCF6A
:100C4E008025000000006302C301F001B002210202
:100C5E00FF0113020D0A00554152542064612063B6
:100C6E006169206461743A20003D3D3D204D4F4442
:100C7E0045204341552048494E4820554152542065
:100C8E003D3D3D003D3D3D2054524F2056452043B5
:100C9E00484520444F20484F415420444F4E472052
:100CAE003D3D3D004E68616E2067697520337320AF
:100CBE0064652074686F617420636F6E6669672E59
:040CCE002E2E0000C6
:00000001FF
